{"abi":[{"type":"constructor","inputs":[{"name":"_question","type":"string","internalType":"string"},{"name":"_resolutionTimestamp","type":"uint256","internalType":"uint256"},{"name":"_oracle","type":"address","internalType":"address"},{"name":"_collateralToken","type":"address","internalType":"address"},{"name":"_yesToken","type":"address","internalType":"address"},{"name":"_noToken","type":"address","internalType":"address"},{"name":"_factory","type":"address","internalType":"address"}],"stateMutability":"nonpayable"},{"type":"function","name":"FEE_DENOMINATOR","inputs":[],"outputs":[{"name":"","type":"uint256","internalType":"uint256"}],"stateMutability":"view"},{"type":"function","name":"TRADING_FEE","inputs":[],"outputs":[{"name":"","type":"uint256","internalType":"uint256"}],"stateMutability":"view"},{"type":"function","name":"accumulatedFees","inputs":[],"outputs":[{"name":"","type":"uint256","internalType":"uint256"}],"stateMutability":"view"},{"type":"function","name":"addLiquidity","inputs":[{"name":"_amount","type":"uint256","internalType":"uint256"}],"outputs":[],"stateMutability":"nonpayable"},{"type":"function","name":"buy","inputs":[{"name":"_tokenToBuy","type":"address","internalType":"address"},{"name":"_amountIn","type":"uint256","internalType":"uint256"}],"outputs":[],"stateMutability":"nonpayable"},{"type":"function","name":"collateralToken","inputs":[],"outputs":[{"name":"","type":"address","internalType":"contract IERC20"}],"stateMutability":"view"},{"type":"function","name":"getCurrentPrices","inputs":[],"outputs":[{"name":"yesPrice","type":"uint256","internalType":"uint256"},{"name":"noPrice","type":"uint256","internalType":"uint256"}],"stateMutability":"view"},{"type":"function","name":"getMarketInfo","inputs":[],"outputs":[{"name":"questionText","type":"string","internalType":"string"},{"name":"marketState","type":"uint8","internalType":"enum Market.State"},{"name":"resolution","type":"uint256","internalType":"uint256"},{"name":"oracleAddress","type":"address","internalType":"address"},{"name":"collateral","type":"address","internalType":"address"},{"name":"yes","type":"address","internalType":"address"},{"name":"no","type":"address","internalType":"address"},{"name":"winner","type":"address","internalType":"address"},{"name":"liquidity","type":"uint256","internalType":"uint256"}],"stateMutability":"view"},{"type":"function","name":"noToken","inputs":[],"outputs":[{"name":"","type":"address","internalType":"contract OutcomeToken"}],"stateMutability":"view"},{"type":"function","name":"oracle","inputs":[],"outputs":[{"name":"","type":"address","internalType":"address"}],"stateMutability":"view"},{"type":"function","name":"owner","inputs":[],"outputs":[{"name":"","type":"address","internalType":"address"}],"stateMutability":"view"},{"type":"function","name":"question","inputs":[],"outputs":[{"name":"","type":"string","internalType":"string"}],"stateMutability":"view"},{"type":"function","name":"redeem","inputs":[],"outputs":[],"stateMutability":"nonpayable"},{"type":"function","name":"renounceOwnership","inputs":[],"outputs":[],"stateMutability":"nonpayable"},{"type":"function","name":"resolutionTimestamp","inputs":[],"outputs":[{"name":"","type":"uint256","internalType":"uint256"}],"stateMutability":"view"},{"type":"function","name":"resolveMarket","inputs":[{"name":"_isYesOutcome","type":"bool","internalType":"bool"}],"outputs":[],"stateMutability":"nonpayable"},{"type":"function","name":"sell","inputs":[{"name":"_tokenToSell","type":"address","internalType":"address"},{"name":"_amountIn","type":"uint256","internalType":"uint256"}],"outputs":[],"stateMutability":"nonpayable"},{"type":"function","name":"state","inputs":[],"outputs":[{"name":"","type":"uint8","internalType":"enum Market.State"}],"stateMutability":"view"},{"type":"function","name":"totalLiquidity","inputs":[],"outputs":[{"name":"","type":"uint256","internalType":"uint256"}],"stateMutability":"view"},{"type":"function","name":"transferOwnership","inputs":[{"name":"newOwner","type":"address","internalType":"address"}],"outputs":[],"stateMutability":"nonpayable"},{"type":"function","name":"winningToken","inputs":[],"outputs":[{"name":"","type":"address","internalType":"address"}],"stateMutability":"view"},{"type":"function","name":"withdrawFees","inputs":[],"outputs":[],"stateMutability":"nonpayable"},{"type":"function","name":"yesToken","inputs":[],"outputs":[{"name":"","type":"address","internalType":"contract OutcomeToken"}],"stateMutability":"view"},{"type":"event","name":"LiquidityAdded","inputs":[{"name":"provider","type":"address","indexed":true,"internalType":"address"},{"name":"amount","type":"uint256","indexed":false,"internalType":"uint256"}],"anonymous":false},{"type":"event","name":"MarketResolved","inputs":[{"name":"isYesOutcome","type":"bool","indexed":false,"internalType":"bool"},{"name":"winningToken","type":"address","indexed":false,"internalType":"address"}],"anonymous":false},{"type":"event","name":"OwnershipTransferred","inputs":[{"name":"previousOwner","type":"address","indexed":true,"internalType":"address"},{"name":"newOwner","type":"address","indexed":true,"internalType":"address"}],"anonymous":false},{"type":"event","name":"TokensPurchased","inputs":[{"name":"buyer","type":"address","indexed":true,"internalType":"address"},{"name":"token","type":"address","indexed":true,"internalType":"address"},{"name":"amountIn","type":"uint256","indexed":false,"internalType":"uint256"},{"name":"tokensOut","type":"uint256","indexed":false,"internalType":"uint256"}],"anonymous":false},{"type":"event","name":"TokensRedeemed","inputs":[{"name":"user","type":"address","indexed":true,"internalType":"address"},{"name":"amount","type":"uint256","indexed":false,"internalType":"uint256"}],"anonymous":false},{"type":"event","name":"TokensSold","inputs":[{"name":"seller","type":"address","indexed":true,"internalType":"address"},{"name":"token","type":"address","indexed":true,"internalType":"address"},{"name":"tokensIn","type":"uint256","indexed":false,"internalType":"uint256"},{"name":"amountOut","type":"uint256","indexed":false,"internalType":"uint256"}],"anonymous":false},{"type":"error","name":"OwnableInvalidOwner","inputs":[{"name":"owner","type":"address","internalType":"address"}]},{"type":"error","name":"OwnableUnauthorizedAccount","inputs":[{"name":"account","type":"address","internalType":"address"}]},{"type":"error","name":"ReentrancyGuardReentrantCall","inputs":[]},{"type":"error","name":"SafeERC20FailedOperation","inputs":[{"name":"token","type":"address","internalType":"address"}]}],"bytecode":{"object":"0x604060e0815234620004b85762001e1990813803806200001f81620004bc565b938439820160e083820312620004b85782516001600160401b039190828111620004b857840193601f828187011215620004b85785518481116200039557602090601f199762000075838a8685011601620004bc565b95828752838383010111620004b85782905f5b838110620004a35750505f91860101528083015194620000aa878501620004e2565b95620000b960608601620004e2565b91620000c860808701620004e2565b94620000e560c0620000dd60a08a01620004e2565b9801620004e2565b60015f819055996001600160a01b0399918a1680156200048c578b546001600160a01b031980821683178e558e519097969594939290918d167f8be0079c531659141344cd1fd0a4f28419497f9722a3daafe3b4186f6b6457e05f80a3428611156200044057508a16958615620003fc578a16968715620003a957815193841162000395576002548c81811c911680156200038a575b82821014620003765783811162000331575b508a9b9c9d5f9b9a9b5081938511600114620002b45750509082915f92620002a8575b50505f19600383901b1c1916908a1b176002555b60035560045416176004556080521660a0521660c05260ff60a01b198154169055516119219081620004f882396080518181816102e6015281816106fa0152818161085a01528181610ab401528181610b9f01528181610d5e0152610ea8015260a0518181816101c40152818161027601528181610496015281816109e601528181610bcd01528181610ed001528181611427015281816115830152611757015260c0518181816103c5015281816104e601528181610af801528181610c3801528181610ef701528181610f5e01528181611468015281816115c8015261179e0152f35b015190505f80620001b0565b91849391928e951660025f52835f20935f905b828210620003015750508411620002e8575b505050811b01600255620001c4565b01515f1960f88460031b161c191690555f8080620002d9565b92948392949790839297999a9b9c9d9e508887015181550196019401918d9b9a9998979694928f969492620002c7565b60025f52815f208480870160051c8201928488106200036c575b0160051c01905b8181106200036157506200018d565b5f81558d0162000352565b925081926200034b565b634e487b7160e01b5f52602260045260245ffd5b90607f16906200017b565b634e487b7160e01b5f52604160045260245ffd5b6084908d519062461bcd60e51b82526004820152602760248201527f436f6c6c61746572616c20746f6b656e2063616e6e6f74206265207a65726f206044820152666164647265737360c81b6064820152fd5b8c5162461bcd60e51b815260048101899052601d60248201527f4f7261636c652063616e6e6f74206265207a65726f20616464726573730000006044820152606490fd5b62461bcd60e51b815260048101899052602160248201527f5265736f6c7574696f6e2074696d65206d75737420626520696e2066757475726044820152606560f81b6064820152608490fd5b8c51631e4fbdf760e01b81525f6004820152602490fd5b81810183015188820184015284920162000088565b5f80fd5b6040519190601f01601f191682016001600160401b038111838210176200039557604052565b51906001600160a01b0382168203620004b85756fe60806040818152600480361015610014575f80fd5b5f92833560e01c90816311a9f10a14610f4a5750806315770f9214610f2b57806323341a0514610e3857806323531b9014610e1c578063361bc1b514610df35780633fad9ae014610dbe578063476343ee14610d2557806351c6590a14610b52578063587f5ed714610b335780636c197ff51461097f578063715018a6146109225780637dc0d1d0146108fb578063852d0d6e146108d157806385af5d35146108b25780638da5cb5b14610889578063b2016bd414610845578063be040fb014610617578063c19d93fb146105eb578063c390bd3014610400578063cce7ec1314610214578063d73792a9146101f7578063f0d9bb20146101af5763f2fde38b1461011d575f80fd5b346101ab5760203660031901126101ab5761013661111e565b9061013f611134565b6001600160a01b03918216928315610195575050600154826bffffffffffffffffffffffff60a01b821617600155167f8be0079c531659141344cd1fd0a4f28419497f9722a3daafe3b4186f6b6457e05f80a380f35b51631e4fbdf760e01b8152908101849052602490fd5b8280fd5b5050346101f357816003193601126101f357517f00000000000000000000000000000000000000000000000000000000000000006001600160a01b03168152602090f35b5080fd5b5050346101f357816003193601126101f357602090516127108152f35b5090346101ab57806003193601126101ab5761022e61111e565b6024359161023a6112c5565b60ff60015460a01c1660038110156103ed576102569015611160565b821593610263851561119e565b6001600160a01b0383811695906102a7907f0000000000000000000000000000000000000000000000000000000000000000811688149081156103c1575b506112e6565b601e850290858204601e1417156103ae576102d2612710889204946102cc8688611353565b90611560565b916102de831515611360565b61030a8630337f000000000000000000000000000000000000000000000000000000000000000061120b565b863b156101f35783516340c10f1960e01b81523391810191825260208201849052908290829081906040010381838b5af180156103a45761038c575b50506103757f6faf93231a456e552dbc9961f58d9713ee4f2e69d15f1975b050ef0911053a7b936007546111ea565b600755815193845260208401523392a36001815580f35b61039590610fec565b6103a057855f610346565b8580fd5b84513d84823e3d90fd5b634e487b7160e01b875260118252602487fd5b90507f00000000000000000000000000000000000000000000000000000000000000001687145f6102a1565b634e487b7160e01b865260218552602486fd5b509190346101f35760203660031901126101f3578235801515908181036105e75784546001600160a01b039190821633036105a4576003544210610561576001549560ff8760a01c16600381101561054e5761050b575060ff60a01b19909516600160a11b1760015592937f0325be8d47daaa2df3b411698d69d15ad85c7cc38080909d1cf3389bd734e14d9390156104e357807f0000000000000000000000000000000000000000000000000000000000000000165b1684600554826bffffffffffffffffffffffff60a01b821617600555845193845216176020820152a180f35b807f0000000000000000000000000000000000000000000000000000000000000000166104b7565b606490602086519162461bcd60e51b8352820152601760248201527f4d61726b657420616c7265616479207265736f6c7665640000000000000000006044820152fd5b634e487b7160e01b875260218252602487fd5b835162461bcd60e51b8152602081880152601b60248201527f5265736f6c7574696f6e2074696d65206e6f74207265616368656400000000006044820152606490fd5b835162461bcd60e51b8152602081880152601760248201527f4f6e6c79206f7261636c652063616e207265736f6c76650000000000000000006044820152606490fd5b8380fd5b5050346101f357816003193601126101f35760209061061560ff60015460a01c1691518092610fcb565bf35b5090346101ab57826003193601126101ab576106316112c5565b60ff60015460a01c166003811015610832576002036107f9576005546001600160a01b031680156107bf5781516370a0823160e01b81523384820152926020918285602481845afa9485156107b5578695610782575b50841561074057908186923b156101ab578451632770a7eb60e21b81523392810192835260208301879052918391839182908490829060400103925af180156103a45761072c575b50507fcdd4c59de26b3f8623e6012ab9bc32a995eda3452d89c941fc8af6b74276ad389161071e84337f00000000000000000000000000000000000000000000000000000000000000006113ac565b519283523392a26001815580f35b61073590610fec565b6105e757835f6106cf565b50915162461bcd60e51b815291820152601b60248201527f4e6f2077696e6e696e6720746f6b656e7320746f2072656465656d00000000006044820152606490fd5b9094508281813d83116107ae575b61079a8183611014565b810103126107aa5751935f610687565b5f80fd5b503d610790565b84513d88823e3d90fd5b815162461bcd60e51b81526020818501526014602482015273139bc81dda5b9b9a5b99c81d1bdad95b881cd95d60621b6044820152606490fd5b906020606492519162461bcd60e51b8352820152601360248201527213585c9ad95d081b9bdd081c995cdbdb1d9959606a1b6044820152fd5b634e487b7160e01b845260218352602484fd5b5050346101f357816003193601126101f357517f00000000000000000000000000000000000000000000000000000000000000006001600160a01b03168152602090f35b5050346101f357816003193601126101f35760015490516001600160a01b039091168152602090f35b5050346101f357816003193601126101f3576020906003549051908152f35b8284346108f857806003193601126108f857506108ec6113ed565b82519182526020820152f35b80fd5b50346101ab57826003193601126101ab575490516001600160a01b03909116815260209150f35b83346108f857806003193601126108f85761093b611134565b600180546001600160a01b031981169091555f906001600160a01b03167f8be0079c531659141344cd1fd0a4f28419497f9722a3daafe3b4186f6b6457e08280a380f35b5090346101ab57806003193601126101ab5761099961111e565b91602435916109a66112c5565b60ff60015460a01c166003811015610b20576109c29015611160565b6109cd83151561119e565b6001600160a01b0384811694610a1b91859190610a16907f000000000000000000000000000000000000000000000000000000000000000081168914908115610af457506112e6565b611739565b918215610a288115611360565b601e840290848204601e1417156103ae57610a496127108892048095611353565b91863b156101f3578351632770a7eb60e21b81523391810191825260208201879052908290829081906040010381838b5af180156103a457610ae0575b50506103757f697c42d55a5e1fed3f464ec6f38b32546a0bd368dc8068b065c67566d73f329093610ad883337f00000000000000000000000000000000000000000000000000000000000000006113ac565b6007546111ea565b610ae990610fec565b6103a057855f610a86565b90507f00000000000000000000000000000000000000000000000000000000000000001688145f6102a1565b634e487b7160e01b865260218352602486fd5b5050346101f357816003193601126101f3576020906007549051908152f35b5090346101ab5760203660031901126101ab57813591610b706112c5565b60ff60015460a01c166003811015610d1257610b8c9015611160565b610b9783151561119e565b610bc38330337f000000000000000000000000000000000000000000000000000000000000000061120b565b6001600160a01b037f000000000000000000000000000000000000000000000000000000000000000081169190823b156103a05783516340c10f1960e01b80825233848301908152602081018890529094889183919082908490829060400103925af18015610d0857610cf1575b50908592917f00000000000000000000000000000000000000000000000000000000000000001691823b156105e7578451908152339181019182526020820186905291839183919082908490829060400103925af18015610ce757610cd3575b5050610c9f826006546111ea565b600655519081527fc17cea59c2955cb181b03393209566960365771dbba9dc3d510180e7cb31208860203392a26001815580f35b610cdc90610fec565b6101ab57825f610c91565b83513d84823e3d90fd5b610cff909691939296610fec565b9490915f610c31565b85513d89823e3d90fd5b634e487b7160e01b855260218252602485fd5b50346101ab57826003193601126101ab57610d3e611134565b600754918215610d855783610d82848260075560018060a01b03600154167f00000000000000000000000000000000000000000000000000000000000000006113ac565b80f35b906020606492519162461bcd60e51b835282015260136024820152724e6f206665657320746f20776974686472617760681b6044820152fd5b5050346101f357816003193601126101f357610def90610ddc611036565b9051918291602083526020830190610f8d565b0390f35b5050346101f357816003193601126101f35760055490516001600160a01b039091168152602090f35b5050346101f357816003193601126101f35760209051601e8152f35b50346101ab57826003193601126101ab576001546003549154600554600654610e8c965092936001600160a01b0391821692821690610e75611036565b96610e9d8151998a99610120808c528b0190610f8d565b9760ff60208b019160a01c16610fcb565b8701526060860152807f0000000000000000000000000000000000000000000000000000000000000000166080860152807f00000000000000000000000000000000000000000000000000000000000000001660a08601527f00000000000000000000000000000000000000000000000000000000000000001660c085015260e08401526101008301520390f35b5050346101f357816003193601126101f3576020906006549051908152f35b8490346101f357816003193601126101f3577f00000000000000000000000000000000000000000000000000000000000000006001600160a01b03168152602090f35b91908251928382525f5b848110610fb7575050825f602080949584010152601f8019910116010190565b602081830181015184830182015201610f97565b906003821015610fd85752565b634e487b7160e01b5f52602160045260245ffd5b67ffffffffffffffff811161100057604052565b634e487b7160e01b5f52604160045260245ffd5b90601f8019910116810190811067ffffffffffffffff82111761100057604052565b604051905f60025490600182811c90808416938415611114575b602094858410811461110057838852879493929181156110e05750600114611083575b505061108192500383611014565b565b9093915060025f527f405787fa12a823e0f2b7631cc41b3ba8828b3321ca811111fa75cd3aa3bb5ace935f915b8183106110c857505061108193508201015f80611073565b855488840185015294850194879450918301916110b0565b91505061108194925060ff191682840152151560051b8201015f80611073565b634e487b7160e01b85526022600452602485fd5b91607f1691611050565b600435906001600160a01b03821682036107aa57565b6001546001600160a01b0316330361114857565b60405163118cdaa760e01b8152336004820152602490fd5b1561116757565b60405162461bcd60e51b815260206004820152600f60248201526e26b0b935b2ba103737ba1037b832b760891b6044820152606490fd5b156111a557565b60405162461bcd60e51b815260206004820152601d60248201527f416d6f756e74206d7573742062652067726561746572207468616e20300000006044820152606490fd5b919082018092116111f757565b634e487b7160e01b5f52601160045260245ffd5b6040516323b872dd60e01b60208201526001600160a01b03928316602482015292909116604483015260648083019390935291815260a081019181831067ffffffffffffffff84111761100057611081926040525b905f602091828151910182855af1156112ba575f513d6112b157506001600160a01b0381163b155b61128f5750565b604051635274afe760e01b81526001600160a01b039091166004820152602490fd5b60011415611288565b6040513d5f823e3d90fd5b60025f54146112d45760025f55565b604051633ee5aeb560e01b8152600490fd5b156112ed57565b60405162461bcd60e51b815260206004820152600d60248201526c24b73b30b634b2103a37b5b2b760991b6044820152606490fd5b818102929181159184041417156111f757565b811561133f570490565b634e487b7160e01b5f52601260045260245ffd5b919082039182116111f757565b1561136757565b60405162461bcd60e51b815260206004820152601a60248201527f496e73756666696369656e74206f757470757420616d6f756e740000000000006044820152606490fd5b60405163a9059cbb60e01b60208201526001600160a01b03929092166024830152604480830193909352918152611081916113e8606483611014565b611260565b60ff60015460a01c166003811015610fd85761155a576040516318160ddd60e01b8082529091906001600160a01b039060209081856004817f000000000000000000000000000000000000000000000000000000000000000087165afa9485156112ba575f9561152b575b50819060046040518095819382527f0000000000000000000000000000000000000000000000000000000000000000165afa9081156112ba575f916114ff575b5090506114a581846111ea565b80156114ed57670de0b6b3a764000091828102908082048414901517156111f757816114d091611335565b938281029281840414901517156111f7576114ea91611335565b90565b505090506706f05b59d3b20000908190565b82813d8311611524575b6115138183611014565b810103126108f8575051805f611498565b503d611509565b90948282813d8311611553575b6115428183611014565b810103126108f85750519381611458565b503d611538565b5f905f90565b6040516318160ddd60e01b8082526001600160a01b0393600493909290916020907f000000000000000000000000000000000000000000000000000000000000000087169082848881855afa9384156112ba575f9461170a575b50604051908152828188818b7f0000000000000000000000000000000000000000000000000000000000000000165afa9283156112ba575f936116d9575b50508215968780156116d1575b6116c65761161383856111ea565b941603611693575061162583836111ea565b50670de0b6b3a76400009485820291820486141715611680579061164891611335565b83039183831161166d57509061165d91611322565b0480156116675790565b50600190565b601190634e487b7160e01b5f525260245ffd5b601184634e487b7160e01b5f525260245ffd5b9450506116a082826111ea565b50670de0b6b3a76400009384810290808204861490151715611680579061164891611335565b505050505091505090565b508215611605565b8181949293943d8311611703575b6116f18183611014565b810103126108f8575051905f806115f8565b503d6116e7565b90938382813d8311611732575b6117218183611014565b810103126108f8575051925f6115ba565b503d611717565b6040516318160ddd60e01b8082529091906020906001600160a01b037f00000000000000000000000000000000000000000000000000000000000000008116918386600481865afa9586156112ba575f966118bc575b506040519081528381600481857f0000000000000000000000000000000000000000000000000000000000000000165afa9384156112ba575f9461188b575b5050858511801590611881575b8015611879575b8015611871575b611867576117f783866111ea565b9316036118355750670de0b6b3a7640000928381029381850414901517156111f75761182f61165d92671bc16d674ec8000094611335565b90611322565b9150670de0b6b3a7640000928381029381850414901517156111f75761182f61165d92671bc16d674ec8000094611335565b5050505050505f90565b5082156117e9565b5084156117e2565b50858311156117db565b8181959293953d83116118b5575b6118a38183611014565b810103126108f8575051915f806117ce565b503d611899565b90958482813d83116118e4575b6118d38183611014565b810103126108f8575051945f61178f565b503d6118c956fea26469706673582212206dcfe3b7e449acdb00d76fa2faaac4971c32323bef13879fd562a119211989a064736f6c63430008140033","linkReferences":{}},"methodIdentifiers":{"FEE_DENOMINATOR()":"d73792a9","TRADING_FEE()":"23531b90","accumulatedFees()":"587f5ed7","addLiquidity(uint256)":"51c6590a","buy(address,uint256)":"cce7ec13","collateralToken()":"b2016bd4","getCurrentPrices()":"852d0d6e","getMarketInfo()":"23341a05","noToken()":"11a9f10a","oracle()":"7dc0d1d0","owner()":"8da5cb5b","question()":"3fad9ae0","redeem()":"be040fb0","renounceOwnership()":"715018a6","resolutionTimestamp()":"85af5d35","resolveMarket(bool)":"c390bd30","sell(address,uint256)":"6c197ff5","state()":"c19d93fb","totalLiquidity()":"15770f92","transferOwnership(address)":"f2fde38b","winningToken()":"361bc1b5","withdrawFees()":"476343ee","yesToken()":"f0d9bb20"},"id":31}