{"abi":[{"type":"constructor","inputs":[{"name":"_defaultOracle","type":"address","internalType":"address"}],"stateMutability":"nonpayable"},{"type":"function","name":"MAX_RESOLUTION_TIME","inputs":[],"outputs":[{"name":"","type":"uint256","internalType":"uint256"}],"stateMutability":"view"},{"type":"function","name":"MIN_RESOLUTION_TIME","inputs":[],"outputs":[{"name":"","type":"uint256","internalType":"uint256"}],"stateMutability":"view"},{"type":"function","name":"createMarket","inputs":[{"name":"_question","type":"string","internalType":"string"},{"name":"_collateralToken","type":"address","internalType":"address"},{"name":"_oracle","type":"address","internalType":"address"},{"name":"_resolutionTimestamp","type":"uint256","internalType":"uint256"}],"outputs":[{"name":"market","type":"address","internalType":"address"},{"name":"yesToken","type":"address","internalType":"address"},{"name":"noToken","type":"address","internalType":"address"}],"stateMutability":"nonpayable"},{"type":"function","name":"defaultOracle","inputs":[],"outputs":[{"name":"","type":"address","internalType":"address"}],"stateMutability":"view"},{"type":"function","name":"getAllMarkets","inputs":[],"outputs":[{"name":"","type":"address[]","internalType":"address[]"}],"stateMutability":"view"},{"type":"function","name":"getMarketByIndex","inputs":[{"name":"_index","type":"uint256","internalType":"uint256"}],"outputs":[{"name":"market","type":"address","internalType":"address"},{"name":"question","type":"string","internalType":"string"},{"name":"state","type":"uint8","internalType":"enum Market.State"},{"name":"resolutionTimestamp","type":"uint256","internalType":"uint256"},{"name":"oracle","type":"address","internalType":"address"},{"name":"collateralToken","type":"address","internalType":"address"},{"name":"yesToken","type":"address","internalType":"address"},{"name":"noToken","type":"address","internalType":"address"},{"name":"totalLiquidity","type":"uint256","internalType":"uint256"}],"stateMutability":"view"},{"type":"function","name":"getMarkets","inputs":[{"name":"_start","type":"uint256","internalType":"uint256"},{"name":"_end","type":"uint256","internalType":"uint256"}],"outputs":[{"name":"","type":"address[]","internalType":"address[]"}],"stateMutability":"view"},{"type":"function","name":"getMarketsByState","inputs":[{"name":"_state","type":"uint8","internalType":"enum Market.State"}],"outputs":[{"name":"","type":"address[]","internalType":"address[]"}],"stateMutability":"view"},{"type":"function","name":"getMarketsCount","inputs":[],"outputs":[{"name":"","type":"uint256","internalType":"uint256"}],"stateMutability":"view"},{"type":"function","name":"getResolvableMarkets","inputs":[],"outputs":[{"name":"","type":"address[]","internalType":"address[]"}],"stateMutability":"view"},{"type":"function","name":"isValidMarket","inputs":[{"name":"","type":"address","internalType":"address"}],"outputs":[{"name":"","type":"bool","internalType":"bool"}],"stateMutability":"view"},{"type":"function","name":"marketIndex","inputs":[{"name":"","type":"address","internalType":"address"}],"outputs":[{"name":"","type":"uint256","internalType":"uint256"}],"stateMutability":"view"},{"type":"function","name":"markets","inputs":[{"name":"","type":"uint256","internalType":"uint256"}],"outputs":[{"name":"","type":"address","internalType":"address"}],"stateMutability":"view"},{"type":"function","name":"owner","inputs":[],"outputs":[{"name":"","type":"address","internalType":"address"}],"stateMutability":"view"},{"type":"function","name":"renounceOwnership","inputs":[],"outputs":[],"stateMutability":"nonpayable"},{"type":"function","name":"transferOwnership","inputs":[{"name":"newOwner","type":"address","internalType":"address"}],"outputs":[],"stateMutability":"nonpayable"},{"type":"function","name":"updateDefaultOracle","inputs":[{"name":"_newOracle","type":"address","internalType":"address"}],"outputs":[],"stateMutability":"nonpayable"},{"type":"event","name":"DefaultOracleUpdated","inputs":[{"name":"oldOracle","type":"address","indexed":true,"internalType":"address"},{"name":"newOracle","type":"address","indexed":true,"internalType":"address"}],"anonymous":false},{"type":"event","name":"MarketCreated","inputs":[{"name":"market","type":"address","indexed":true,"internalType":"address"},{"name":"question","type":"string","indexed":false,"internalType":"string"},{"name":"collateralToken","type":"address","indexed":true,"internalType":"address"},{"name":"oracle","type":"address","indexed":true,"internalType":"address"},{"name":"resolutionTimestamp","type":"uint256","indexed":false,"internalType":"uint256"},{"name":"yesToken","type":"address","indexed":false,"internalType":"address"},{"name":"noToken","type":"address","indexed":false,"internalType":"address"}],"anonymous":false},{"type":"event","name":"OwnershipTransferred","inputs":[{"name":"previousOwner","type":"address","indexed":true,"internalType":"address"},{"name":"newOwner","type":"address","indexed":true,"internalType":"address"}],"anonymous":false},{"type":"error","name":"OwnableInvalidOwner","inputs":[{"name":"owner","type":"address","internalType":"address"}]},{"type":"error","name":"OwnableUnauthorizedAccount","inputs":[{"name":"account","type":"address","internalType":"address"}]},{"type":"error","name":"ReentrancyGuardReentrantCall","inputs":[]}],"bytecode":{"object":"0x60803461011257601f61450538819003918201601f19168301916001600160401b038311848410176101165780849260209460405283398101031261011257516001600160a01b03808216918290036101125733156100fa575f549060018060a01b03199133838216175f55604051913391167f8be0079c531659141344cd1fd0a4f28419497f9722a3daafe3b4186f6b6457e05f80a36001805582156100b8575060055416176005556040516143da908161012b8239f35b62461bcd60e51b815260206004820152601d60248201527f4f7261636c652063616e6e6f74206265207a65726f20616464726573730000006044820152606490fd5b604051631e4fbdf760e01b81525f6004820152602490fd5b5f80fd5b634e487b7160e01b5f52604160045260245ffdfe608080604052600436101562000013575f80fd5b5f90813560e01c90816327fa35c3146200133c575080633e79797014620012b957806358e6309f14620012765780635daab7561462001239578063715018a614620011db57806373d8c6bd1462000b6057806374623243146200087757806380968d48146200076057806380dce16914620007355780638da5cb5b146200070c5780639598fd0614620006eb5780639b7bcd2414620004c5578063af4b9d3d1462000280578063b0772d0b14620001e9578063b1283e7714620001a0578063eb269fd914620001815763f2fde38b14620000eb575f80fd5b346200017e5760203660031901126200017e57620001086200135a565b62000112620014b3565b6001600160a01b0390811690811562000165575f54826bffffffffffffffffffffffff60a01b8216175f55167f8be0079c531659141344cd1fd0a4f28419497f9722a3daafe3b4186f6b6457e05f80a380f35b604051631e4fbdf760e01b815260048101849052602490fd5b80fd5b50346200017e57806003193601126200017e576020604051610e108152f35b50346200017e5760203660031901126200017e57600435906002548210156200017e576020620001d08362001469565b905460405160039290921b1c6001600160a01b03168152f35b50346200017e57806003193601126200017e57604051600280548083529083526020808301937f405787fa12a823e0f2b7631cc41b3ba8828b3321ca811111fa75cd3aa3bb5ace92915b8282106200025f576200025b856200024e818903826200139a565b60405191829182620013da565b0390f35b83546001600160a01b03168652948501946001938401939091019062000233565b50346200017e57602090816003193601126200017e576004356002548110156200048057620002af9062001469565b90546040516323341a0560e01b815260039290921b1c6001600160a01b039081169291908282600481875afa91821562000475578395848586918799889489968a996200036a575b509062000315916040519b8c5261012080918d01528b019062001442565b976003821015620003565750988580949381938b9c60408d015260608c01521660808a01521660a08801521660c08601521660e08401526101008301520390f35b634e487b7160e01b81526021600452602490fd5b9b5097505050505050503d8084873e6200038581876200139a565b8501610120868203126200047157855167ffffffffffffffff81116200046957860181601f820112156200046957805190620003c182620013bd565b92620003d160405194856200139a565b8284528583830101116200046d5790620003f1918580850191016200141f565b82860151956003871015620004695760408101516200041360608301620015c3565b6200042160808401620015c3565b91620003156200043460a08601620015c3565b9a6101006200044660c08801620015c3565b966200045560e08201620015c3565b50015196909293949b9596989091620002f7565b8480fd5b8580fd5b8380fd5b6040513d85823e3d90fd5b60405162461bcd60e51b815260048101849052601a60248201527f4d61726b657420696e646578206f7574206f6620626f756e64730000000000006044820152606490fd5b50346200017e57602080600319360112620006e757600435906003808310158062000469576002549285805b8581106200061f5750620005059062001567565b948692875b8681106200052257604051806200025b8a82620013da565b836004620005308362001469565b905460405163c19d93fb60e01b81526001600160a01b039490939092849283918d1b1c86165afa908115620006145784908c92620005de575b50620005ca5787811015620005ca57841462000592575b506200058c906200159f565b6200050a565b8195620005c291620005a86200058c9462001469565b9054908a1b1c16620005bb828c620015ae565b526200159f565b949062000580565b634e487b7160e01b8b52602160045260248bfd5b62000604919250873d89116200060c575b620005fb81836200139a565b810190620015d8565b905f62000569565b503d620005ef565b6040513d8d823e3d90fd5b6004836200062d8362001469565b905460405163c19d93fb60e01b8152938492909183918b1b1c6001600160a01b03165afa908115620006dc5785908a92620006b8575b50620006a45785811015620006a45787146200068b575b62000685906200159f565b620004f1565b906200069b62000685916200159f565b9190506200067a565b634e487b7160e01b89526021600452602489fd5b620006d4919250853d87116200060c57620005fb81836200139a565b905f62000663565b6040513d8b823e3d90fd5b5080fd5b50346200017e57806003193601126200017e5760206040516301e133808152f35b50346200017e57806003193601126200017e57546040516001600160a01b039091168152602090f35b50346200017e57806003193601126200017e576005546040516001600160a01b039091168152602090f35b50346200017e5760403660031901126200017e576004356024358082101562000842576002548111620007fd57620007a36200079d83836200152c565b62001567565b91805b828110620007be57604051806200025b8682620013da565b80620007ce620007f79262001469565b905460039190911b1c6001600160a01b0316620005bb620007f085846200152c565b87620015ae565b620007a6565b60405162461bcd60e51b815260206004820152601760248201527f456e6420696e646578206f7574206f6620626f756e64730000000000000000006044820152606490fd5b60405162461bcd60e51b815260206004820152600d60248201526c496e76616c69642072616e676560981b6044820152606490fd5b50346200017e57806003193601126200017e5760025481805b82811062000a195750620008a49062001567565b9082835b828110620008c057604051806200025b8682620013da565b620008cb8162001469565b905460405163c19d93fb60e01b81526001600160a01b039260039290831b1c8316906020908181600481865afa90811562000a0e578a91620009ec575b5083811015620009d85715918262000968575b505062000936575b505062000930906200159f565b620008a8565b926200095f9183946200094d620009309562001469565b9054911b1c16620005bb8288620015ae565b91905f62000923565b6040516385af5d3560e01b81529192508290829060049082905afa918215620006dc578992620009a0575b50504210155f806200091b565b90809250813d8311620009d0575b620009ba81836200139a565b81010312620009cc57515f8062000993565b5f80fd5b503d620009ae565b634e487b7160e01b8a52602160045260248afd5b62000a079150823d84116200060c57620005fb81836200139a565b5f62000908565b6040513d8c823e3d90fd5b62000a248162001469565b905460405163c19d93fb60e01b8152600392831b9190911c6001600160a01b031691602091908282600481875afa91821562000b5557889262000b31575b5081101562000b1d5715918262000aa6575b505062000a8d575b62000a87906200159f565b62000890565b9062000a9d62000a87916200159f565b91905062000a7c565b6040516385af5d3560e01b81529192508290829060049082905afa91821562000b1257869262000ade575b50504210155f8062000a74565b90809250813d831162000b0a575b62000af881836200139a565b81010312620009cc57515f8062000ad1565b503d62000aec565b6040513d88823e3d90fd5b634e487b7160e01b87526021600452602487fd5b62000b4d919250833d85116200060c57620005fb81836200139a565b905f62000a62565b6040513d8a823e3d90fd5b50346200017e5760803660031901126200017e5760043567ffffffffffffffff8111620006e75736602382011215620006e7578181600401359162000ba583620013bd565b9262000bb560405194856200139a565b8084523660248284010111620011d757806024602093018386013783010152602435906001600160a01b0382168203620011d7576044356001600160a01b0381168082036200046957600260015414620011c557600260015582511562001180576001600160a01b038416156200112b57610e1042018042116200111757606435101580620010fc575b15620010b757620010b157506005546001600160a01b03165b62000c6e6001600160a01b0382161515620014df565b6002549262000c7d84620015f2565b9162000cbc60246040518095635945532d60e01b602083015262000cab81518092602086860191016200141f565b81010360048101865201846200139a565b62000cc785620015f2565b9262000d0560236040518096624e4f2d60e81b602083015262000cf481518092602086860191016200141f565b81010360038101875201856200139a565b604051906502ca2a99016960d51b602083015262000d44602683885162000d338184840160208d016200141f565b81010360068101855201836200139a565b6040519182610e8f81011067ffffffffffffffff610e8f850111176200104157829162000d8a62000da192610e8f6200351686396080610e8f8601818152019062001442565b90610e8f840182036020610e8f8601015262001442565b60016040610e8f84010152306060610e8f84010152039087f092831562000b12576040519064027279016960dd1b602083015262000e00602583885162000def8184840160208d016200141f565b81010360058101855201836200139a565b6040519182610e8f81011067ffffffffffffffff610e8f850111176200104157829162000d8a62000e4692610e8f6200351686396080610e8f8601818152019062001442565b886040610e8f84010152306060610e8f84010152039087f092831562000b12576040516001600160a01b03948516959190941693611e198082019067ffffffffffffffff8211838310176200109d57908291620016fd833960e0815262000eb160e082018562001442565b60643560208301526001600160a01b038681166040840152871660608301526080820188905260a082018990523060c090920191909152039088f0801562001092576001600160a01b031695843b156200106d5760405163f2fde38b60e01b8152600481018890528881602481838a5af18015620006dc576200107c575b50853b156200106d578760405163f2fde38b60e01b81528860048201528181602481838c5af18015620010715762001055575b50506002546801000000000000000081101562001041578792604060609a7f8f650f6c9311a303ad94758a3e29eedc1618ed32a49f24d03d58340336c2f3cf9462000fb885600162001003970160025562001469565b81549060031b9089821b9160018060a01b03901b1916179055868252600360205282822055600460205220600160ff1982541617905560405191829160808352608083019062001442565b6064356020830152604082018890528a82018990526001600160a01b0395861696909516940390a46001805560405192835260208301526040820152f35b634e487b7160e01b89526041600452602489fd5b620010609062001371565b6200106d57875f62000f62565b8780fd5b6040513d84823e3d90fd5b6200108a9098919862001371565b965f62000f2f565b6040513d89823e3d90fd5b634e487b7160e01b8a52604160045260248afd5b62000c58565b60405162461bcd60e51b815260206004820152601c60248201527f496e76616c6964207265736f6c7574696f6e2074696d657374616d70000000006044820152606490fd5b506301e1338042018042116200111757606435111562000c3f565b634e487b7160e01b86526011600452602486fd5b60405162461bcd60e51b815260206004820152602760248201527f436f6c6c61746572616c20746f6b656e2063616e6e6f74206265207a65726f206044820152666164647265737360c81b6064820152608490fd5b60405162461bcd60e51b815260206004820152601860248201527f5175657374696f6e2063616e6e6f7420626520656d70747900000000000000006044820152606490fd5b604051633ee5aeb560e01b8152600490fd5b8280fd5b50346200017e57806003193601126200017e57620011f8620014b3565b80546001600160a01b03198116825581906001600160a01b03167f8be0079c531659141344cd1fd0a4f28419497f9722a3daafe3b4186f6b6457e08280a380f35b50346200017e5760203660031901126200017e576020906040906001600160a01b03620012656200135a565b168152600383522054604051908152f35b50346200017e5760203660031901126200017e5760209060ff906040906001600160a01b03620012a56200135a565b168152600484522054166040519015158152f35b50346200017e5760203660031901126200017e57620012d76200135a565b620012e1620014b3565b6001600160a01b0390811690620012fa821515620014df565b600554826bffffffffffffffffffffffff60a01b821617600555167f91f0076b6a62d3cb799d1ebce63c4e8d031ed0a90443b8f6172b391682b58f4b8380a380f35b905034620006e75781600319360112620006e7576020906002548152f35b600435906001600160a01b0382168203620009cc57565b67ffffffffffffffff81116200138657604052565b634e487b7160e01b5f52604160045260245ffd5b90601f8019910116810190811067ffffffffffffffff8211176200138657604052565b67ffffffffffffffff81116200138657601f01601f191660200190565b602090816040818301928281528551809452019301915f5b82811062001401575050505090565b83516001600160a01b031685529381019392810192600101620013f2565b5f5b838110620014315750505f910152565b818101518382015260200162001421565b906020916200145d815180928185528580860191016200141f565b601f01601f1916010190565b6002548110156200149f5760025f527f405787fa12a823e0f2b7631cc41b3ba8828b3321ca811111fa75cd3aa3bb5ace01905f90565b634e487b7160e01b5f52603260045260245ffd5b5f546001600160a01b03163303620014c757565b60405163118cdaa760e01b8152336004820152602490fd5b15620014e757565b60405162461bcd60e51b815260206004820152601d60248201527f4f7261636c652063616e6e6f74206265207a65726f20616464726573730000006044820152606490fd5b919082039182116200153a57565b634e487b7160e01b5f52601160045260245ffd5b67ffffffffffffffff8111620013865760051b60200190565b9062001573826200154e565b6200158260405191826200139a565b828152809262001595601f19916200154e565b0190602036910137565b5f1981146200153a5760010190565b80518210156200149f5760209160051b010190565b51906001600160a01b0382168203620009cc57565b90816020910312620009cc57516003811015620009cc5790565b908115620016cb579080815f925b620016ae57506200161182620013bd565b916200162160405193846200139a565b808352601f196200163282620013bd565b01366020850137905b818115620016a8575f1983019283116200153a5782600a90818404938285029285840414851517156200153a576200167760ff9384926200152c565b166030019182116200153a57855111156200149f5760f81b6001600160f81b0319165f1a908401601f01536200163b565b50505090565b91620016bf600a919492946200159f565b92048093919362001600565b90506040516040810181811067ffffffffffffffff821117620013865760405260018152600360fc1b60208201529056fe604060e0815234620004b85762001e1990813803806200001f81620004bc565b938439820160e083820312620004b85782516001600160401b039190828111620004b857840193601f828187011215620004b85785518481116200039557602090601f199762000075838a8685011601620004bc565b95828752838383010111620004b85782905f5b838110620004a35750505f91860101528083015194620000aa878501620004e2565b95620000b960608601620004e2565b91620000c860808701620004e2565b94620000e560c0620000dd60a08a01620004e2565b9801620004e2565b60015f819055996001600160a01b0399918a1680156200048c578b546001600160a01b031980821683178e558e519097969594939290918d167f8be0079c531659141344cd1fd0a4f28419497f9722a3daafe3b4186f6b6457e05f80a3428611156200044057508a16958615620003fc578a16968715620003a957815193841162000395576002548c81811c911680156200038a575b82821014620003765783811162000331575b508a9b9c9d5f9b9a9b5081938511600114620002b45750509082915f92620002a8575b50505f19600383901b1c1916908a1b176002555b60035560045416176004556080521660a0521660c05260ff60a01b198154169055516119219081620004f882396080518181816102e6015281816106fa0152818161085a01528181610ab401528181610b9f01528181610d5e0152610ea8015260a0518181816101c40152818161027601528181610496015281816109e601528181610bcd01528181610ed001528181611427015281816115830152611757015260c0518181816103c5015281816104e601528181610af801528181610c3801528181610ef701528181610f5e01528181611468015281816115c8015261179e0152f35b015190505f80620001b0565b91849391928e951660025f52835f20935f905b828210620003015750508411620002e8575b505050811b01600255620001c4565b01515f1960f88460031b161c191690555f8080620002d9565b92948392949790839297999a9b9c9d9e508887015181550196019401918d9b9a9998979694928f969492620002c7565b60025f52815f208480870160051c8201928488106200036c575b0160051c01905b8181106200036157506200018d565b5f81558d0162000352565b925081926200034b565b634e487b7160e01b5f52602260045260245ffd5b90607f16906200017b565b634e487b7160e01b5f52604160045260245ffd5b6084908d519062461bcd60e51b82526004820152602760248201527f436f6c6c61746572616c20746f6b656e2063616e6e6f74206265207a65726f206044820152666164647265737360c81b6064820152fd5b8c5162461bcd60e51b815260048101899052601d60248201527f4f7261636c652063616e6e6f74206265207a65726f20616464726573730000006044820152606490fd5b62461bcd60e51b815260048101899052602160248201527f5265736f6c7574696f6e2074696d65206d75737420626520696e2066757475726044820152606560f81b6064820152608490fd5b8c51631e4fbdf760e01b81525f6004820152602490fd5b81810183015188820184015284920162000088565b5f80fd5b6040519190601f01601f191682016001600160401b038111838210176200039557604052565b51906001600160a01b0382168203620004b85756fe60806040818152600480361015610014575f80fd5b5f92833560e01c90816311a9f10a14610f4a5750806315770f9214610f2b57806323341a0514610e3857806323531b9014610e1c578063361bc1b514610df35780633fad9ae014610dbe578063476343ee14610d2557806351c6590a14610b52578063587f5ed714610b335780636c197ff51461097f578063715018a6146109225780637dc0d1d0146108fb578063852d0d6e146108d157806385af5d35146108b25780638da5cb5b14610889578063b2016bd414610845578063be040fb014610617578063c19d93fb146105eb578063c390bd3014610400578063cce7ec1314610214578063d73792a9146101f7578063f0d9bb20146101af5763f2fde38b1461011d575f80fd5b346101ab5760203660031901126101ab5761013661111e565b9061013f611134565b6001600160a01b03918216928315610195575050600154826bffffffffffffffffffffffff60a01b821617600155167f8be0079c531659141344cd1fd0a4f28419497f9722a3daafe3b4186f6b6457e05f80a380f35b51631e4fbdf760e01b8152908101849052602490fd5b8280fd5b5050346101f357816003193601126101f357517f00000000000000000000000000000000000000000000000000000000000000006001600160a01b03168152602090f35b5080fd5b5050346101f357816003193601126101f357602090516127108152f35b5090346101ab57806003193601126101ab5761022e61111e565b6024359161023a6112c5565b60ff60015460a01c1660038110156103ed576102569015611160565b821593610263851561119e565b6001600160a01b0383811695906102a7907f0000000000000000000000000000000000000000000000000000000000000000811688149081156103c1575b506112e6565b601e850290858204601e1417156103ae576102d2612710889204946102cc8688611353565b90611560565b916102de831515611360565b61030a8630337f000000000000000000000000000000000000000000000000000000000000000061120b565b863b156101f35783516340c10f1960e01b81523391810191825260208201849052908290829081906040010381838b5af180156103a45761038c575b50506103757f6faf93231a456e552dbc9961f58d9713ee4f2e69d15f1975b050ef0911053a7b936007546111ea565b600755815193845260208401523392a36001815580f35b61039590610fec565b6103a057855f610346565b8580fd5b84513d84823e3d90fd5b634e487b7160e01b875260118252602487fd5b90507f00000000000000000000000000000000000000000000000000000000000000001687145f6102a1565b634e487b7160e01b865260218552602486fd5b509190346101f35760203660031901126101f3578235801515908181036105e75784546001600160a01b039190821633036105a4576003544210610561576001549560ff8760a01c16600381101561054e5761050b575060ff60a01b19909516600160a11b1760015592937f0325be8d47daaa2df3b411698d69d15ad85c7cc38080909d1cf3389bd734e14d9390156104e357807f0000000000000000000000000000000000000000000000000000000000000000165b1684600554826bffffffffffffffffffffffff60a01b821617600555845193845216176020820152a180f35b807f0000000000000000000000000000000000000000000000000000000000000000166104b7565b606490602086519162461bcd60e51b8352820152601760248201527f4d61726b657420616c7265616479207265736f6c7665640000000000000000006044820152fd5b634e487b7160e01b875260218252602487fd5b835162461bcd60e51b8152602081880152601b60248201527f5265736f6c7574696f6e2074696d65206e6f74207265616368656400000000006044820152606490fd5b835162461bcd60e51b8152602081880152601760248201527f4f6e6c79206f7261636c652063616e207265736f6c76650000000000000000006044820152606490fd5b8380fd5b5050346101f357816003193601126101f35760209061061560ff60015460a01c1691518092610fcb565bf35b5090346101ab57826003193601126101ab576106316112c5565b60ff60015460a01c166003811015610832576002036107f9576005546001600160a01b031680156107bf5781516370a0823160e01b81523384820152926020918285602481845afa9485156107b5578695610782575b50841561074057908186923b156101ab578451632770a7eb60e21b81523392810192835260208301879052918391839182908490829060400103925af180156103a45761072c575b50507fcdd4c59de26b3f8623e6012ab9bc32a995eda3452d89c941fc8af6b74276ad389161071e84337f00000000000000000000000000000000000000000000000000000000000000006113ac565b519283523392a26001815580f35b61073590610fec565b6105e757835f6106cf565b50915162461bcd60e51b815291820152601b60248201527f4e6f2077696e6e696e6720746f6b656e7320746f2072656465656d00000000006044820152606490fd5b9094508281813d83116107ae575b61079a8183611014565b810103126107aa5751935f610687565b5f80fd5b503d610790565b84513d88823e3d90fd5b815162461bcd60e51b81526020818501526014602482015273139bc81dda5b9b9a5b99c81d1bdad95b881cd95d60621b6044820152606490fd5b906020606492519162461bcd60e51b8352820152601360248201527213585c9ad95d081b9bdd081c995cdbdb1d9959606a1b6044820152fd5b634e487b7160e01b845260218352602484fd5b5050346101f357816003193601126101f357517f00000000000000000000000000000000000000000000000000000000000000006001600160a01b03168152602090f35b5050346101f357816003193601126101f35760015490516001600160a01b039091168152602090f35b5050346101f357816003193601126101f3576020906003549051908152f35b8284346108f857806003193601126108f857506108ec6113ed565b82519182526020820152f35b80fd5b50346101ab57826003193601126101ab575490516001600160a01b03909116815260209150f35b83346108f857806003193601126108f85761093b611134565b600180546001600160a01b031981169091555f906001600160a01b03167f8be0079c531659141344cd1fd0a4f28419497f9722a3daafe3b4186f6b6457e08280a380f35b5090346101ab57806003193601126101ab5761099961111e565b91602435916109a66112c5565b60ff60015460a01c166003811015610b20576109c29015611160565b6109cd83151561119e565b6001600160a01b0384811694610a1b91859190610a16907f000000000000000000000000000000000000000000000000000000000000000081168914908115610af457506112e6565b611739565b918215610a288115611360565b601e840290848204601e1417156103ae57610a496127108892048095611353565b91863b156101f3578351632770a7eb60e21b81523391810191825260208201879052908290829081906040010381838b5af180156103a457610ae0575b50506103757f697c42d55a5e1fed3f464ec6f38b32546a0bd368dc8068b065c67566d73f329093610ad883337f00000000000000000000000000000000000000000000000000000000000000006113ac565b6007546111ea565b610ae990610fec565b6103a057855f610a86565b90507f00000000000000000000000000000000000000000000000000000000000000001688145f6102a1565b634e487b7160e01b865260218352602486fd5b5050346101f357816003193601126101f3576020906007549051908152f35b5090346101ab5760203660031901126101ab57813591610b706112c5565b60ff60015460a01c166003811015610d1257610b8c9015611160565b610b9783151561119e565b610bc38330337f000000000000000000000000000000000000000000000000000000000000000061120b565b6001600160a01b037f000000000000000000000000000000000000000000000000000000000000000081169190823b156103a05783516340c10f1960e01b80825233848301908152602081018890529094889183919082908490829060400103925af18015610d0857610cf1575b50908592917f00000000000000000000000000000000000000000000000000000000000000001691823b156105e7578451908152339181019182526020820186905291839183919082908490829060400103925af18015610ce757610cd3575b5050610c9f826006546111ea565b600655519081527fc17cea59c2955cb181b03393209566960365771dbba9dc3d510180e7cb31208860203392a26001815580f35b610cdc90610fec565b6101ab57825f610c91565b83513d84823e3d90fd5b610cff909691939296610fec565b9490915f610c31565b85513d89823e3d90fd5b634e487b7160e01b855260218252602485fd5b50346101ab57826003193601126101ab57610d3e611134565b600754918215610d855783610d82848260075560018060a01b03600154167f00000000000000000000000000000000000000000000000000000000000000006113ac565b80f35b906020606492519162461bcd60e51b835282015260136024820152724e6f206665657320746f20776974686472617760681b6044820152fd5b5050346101f357816003193601126101f357610def90610ddc611036565b9051918291602083526020830190610f8d565b0390f35b5050346101f357816003193601126101f35760055490516001600160a01b039091168152602090f35b5050346101f357816003193601126101f35760209051601e8152f35b50346101ab57826003193601126101ab576001546003549154600554600654610e8c965092936001600160a01b0391821692821690610e75611036565b96610e9d8151998a99610120808c528b0190610f8d565b9760ff60208b019160a01c16610fcb565b8701526060860152807f0000000000000000000000000000000000000000000000000000000000000000166080860152807f00000000000000000000000000000000000000000000000000000000000000001660a08601527f00000000000000000000000000000000000000000000000000000000000000001660c085015260e08401526101008301520390f35b5050346101f357816003193601126101f3576020906006549051908152f35b8490346101f357816003193601126101f3577f00000000000000000000000000000000000000000000000000000000000000006001600160a01b03168152602090f35b91908251928382525f5b848110610fb7575050825f602080949584010152601f8019910116010190565b602081830181015184830182015201610f97565b906003821015610fd85752565b634e487b7160e01b5f52602160045260245ffd5b67ffffffffffffffff811161100057604052565b634e487b7160e01b5f52604160045260245ffd5b90601f8019910116810190811067ffffffffffffffff82111761100057604052565b604051905f60025490600182811c90808416938415611114575b602094858410811461110057838852879493929181156110e05750600114611083575b505061108192500383611014565b565b9093915060025f527f405787fa12a823e0f2b7631cc41b3ba8828b3321ca811111fa75cd3aa3bb5ace935f915b8183106110c857505061108193508201015f80611073565b855488840185015294850194879450918301916110b0565b91505061108194925060ff191682840152151560051b8201015f80611073565b634e487b7160e01b85526022600452602485fd5b91607f1691611050565b600435906001600160a01b03821682036107aa57565b6001546001600160a01b0316330361114857565b60405163118cdaa760e01b8152336004820152602490fd5b1561116757565b60405162461bcd60e51b815260206004820152600f60248201526e26b0b935b2ba103737ba1037b832b760891b6044820152606490fd5b156111a557565b60405162461bcd60e51b815260206004820152601d60248201527f416d6f756e74206d7573742062652067726561746572207468616e20300000006044820152606490fd5b919082018092116111f757565b634e487b7160e01b5f52601160045260245ffd5b6040516323b872dd60e01b60208201526001600160a01b03928316602482015292909116604483015260648083019390935291815260a081019181831067ffffffffffffffff84111761100057611081926040525b905f602091828151910182855af1156112ba575f513d6112b157506001600160a01b0381163b155b61128f5750565b604051635274afe760e01b81526001600160a01b039091166004820152602490fd5b60011415611288565b6040513d5f823e3d90fd5b60025f54146112d45760025f55565b604051633ee5aeb560e01b8152600490fd5b156112ed57565b60405162461bcd60e51b815260206004820152600d60248201526c24b73b30b634b2103a37b5b2b760991b6044820152606490fd5b818102929181159184041417156111f757565b811561133f570490565b634e487b7160e01b5f52601260045260245ffd5b919082039182116111f757565b1561136757565b60405162461bcd60e51b815260206004820152601a60248201527f496e73756666696369656e74206f757470757420616d6f756e740000000000006044820152606490fd5b60405163a9059cbb60e01b60208201526001600160a01b03929092166024830152604480830193909352918152611081916113e8606483611014565b611260565b60ff60015460a01c166003811015610fd85761155a576040516318160ddd60e01b8082529091906001600160a01b039060209081856004817f000000000000000000000000000000000000000000000000000000000000000087165afa9485156112ba575f9561152b575b50819060046040518095819382527f0000000000000000000000000000000000000000000000000000000000000000165afa9081156112ba575f916114ff575b5090506114a581846111ea565b80156114ed57670de0b6b3a764000091828102908082048414901517156111f757816114d091611335565b938281029281840414901517156111f7576114ea91611335565b90565b505090506706f05b59d3b20000908190565b82813d8311611524575b6115138183611014565b810103126108f8575051805f611498565b503d611509565b90948282813d8311611553575b6115428183611014565b810103126108f85750519381611458565b503d611538565b5f905f90565b6040516318160ddd60e01b8082526001600160a01b0393600493909290916020907f000000000000000000000000000000000000000000000000000000000000000087169082848881855afa9384156112ba575f9461170a575b50604051908152828188818b7f0000000000000000000000000000000000000000000000000000000000000000165afa9283156112ba575f936116d9575b50508215968780156116d1575b6116c65761161383856111ea565b941603611693575061162583836111ea565b50670de0b6b3a76400009485820291820486141715611680579061164891611335565b83039183831161166d57509061165d91611322565b0480156116675790565b50600190565b601190634e487b7160e01b5f525260245ffd5b601184634e487b7160e01b5f525260245ffd5b9450506116a082826111ea565b50670de0b6b3a76400009384810290808204861490151715611680579061164891611335565b505050505091505090565b508215611605565b8181949293943d8311611703575b6116f18183611014565b810103126108f8575051905f806115f8565b503d6116e7565b90938382813d8311611732575b6117218183611014565b810103126108f8575051925f6115ba565b503d611717565b6040516318160ddd60e01b8082529091906020906001600160a01b037f00000000000000000000000000000000000000000000000000000000000000008116918386600481865afa9586156112ba575f966118bc575b506040519081528381600481857f0000000000000000000000000000000000000000000000000000000000000000165afa9384156112ba575f9461188b575b5050858511801590611881575b8015611879575b8015611871575b611867576117f783866111ea565b9316036118355750670de0b6b3a7640000928381029381850414901517156111f75761182f61165d92671bc16d674ec8000094611335565b90611322565b9150670de0b6b3a7640000928381029381850414901517156111f75761182f61165d92671bc16d674ec8000094611335565b5050505050505f90565b5082156117e9565b5084156117e2565b50858311156117db565b8181959293953d83116118b5575b6118a38183611014565b810103126108f8575051915f806117ce565b503d611899565b90958482813d83116118e4575b6118d38183611014565b810103126108f8575051945f61178f565b503d6118c956fea26469706673582212206dcfe3b7e449acdb00d76fa2faaac4971c32323bef13879fd562a119211989a064736f6c6343000814003360a0604052346200039e5762000e8f803803806200001d81620003a2565b9283398101906080818303126200039e5780516001600160401b03908181116200039e57836200004f918401620003c8565b9260209081840151908382116200039e576200006d918501620003c8565b9360408401519384151585036200039e57606001516001600160a01b039586821694918590036200039e578251828111620002a9576003918254916001958684811c9416801562000393575b888510146200037f578190601f948581116200032c575b508890858311600114620002c9575f92620002bd575b50505f1982861b1c191690861b1783555b8051938411620002a95760049586548681811c911680156200029e575b828210146200028b5783811162000243575b5080928511600114620001d957509383949184925f95620001cd575b50501b925f19911b1c19161781555b8115620001b65750600580546001600160a01b03198116831790915560405193167f8be0079c531659141344cd1fd0a4f28419497f9722a3daafe3b4186f6b6457e05f80a3608052610a5690816200043982396080518181816101c9015261024a0152f35b6024905f60405191631e4fbdf760e01b8352820152fd5b015193505f8062000142565b92919084601f198116885f52855f20955f905b898383106200022857505050106200020e575b50505050811b01815562000151565b01519060f8845f19921b161c191690555f808080620001ff565b858701518955909701969485019488935090810190620001ec565b875f52815f208480880160051c82019284891062000281575b0160051c019087905b8281106200027557505062000126565b5f815501879062000265565b925081926200025c565b602288634e487b7160e01b5f525260245ffd5b90607f169062000114565b634e487b7160e01b5f52604160045260245ffd5b015190505f80620000e6565b90889350601f19831691875f528a5f20925f5b8c828210620003155750508411620002fd575b505050811b018355620000f7565b01515f1983881b60f8161c191690555f8080620002ef565b8385015186558c97909501949384019301620002dc565b909150855f52885f208580850160051c8201928b861062000375575b918a91869594930160051c01915b82811062000366575050620000d0565b5f81558594508a910162000356565b9250819262000348565b634e487b7160e01b5f52602260045260245ffd5b93607f1693620000b9565b5f80fd5b6040519190601f01601f191682016001600160401b03811183821017620002a957604052565b919080601f840112156200039e5782516001600160401b038111620002a957602090620003fe601f8201601f19168301620003a2565b928184528282870101116200039e575f5b818110620004245750825f9394955001015290565b85810183015184820184015282016200040f56fe60806040818152600480361015610014575f80fd5b5f92833560e01c90816306fdde03146107ad57508063095ea7b31461070457806318160ddd146106e557806323b872dd146105f3578063313ce567146105d757806340c10f191461052857806370a08231146104f1578063715018a6146104945780638da5cb5b1461046b57806395d89b411461034b5780639dc29fac1461026f578063a77df1c914610232578063a9059cbb14610201578063abb1dc44146101af578063dd62ed3e146101625763f2fde38b146100d0575f80fd5b3461015e57602036600319011261015e576100e96108e9565b906100f2610919565b6001600160a01b03918216928315610148575050600554826bffffffffffffffffffffffff60a01b821617600555167f8be0079c531659141344cd1fd0a4f28419497f9722a3daafe3b4186f6b6457e08380a380f35b51631e4fbdf760e01b8152908101849052602490fd5b8280fd5b5050346101ab57806003193601126101ab57806020926101806108e9565b610188610903565b6001600160a01b0391821683526001865283832091168252845220549051908152f35b5080fd5b8284346101fe57806003193601126101fe575060055481517f0000000000000000000000000000000000000000000000000000000000000000151581526001600160a01b039091166020820152f35b80fd5b5050346101ab57806003193601126101ab5760209061022b6102216108e9565b6024359033610945565b5160018152f35b5050346101ab57816003193601126101ab57602090517f000000000000000000000000000000000000000000000000000000000000000015158152f35b508290346101ab57826003193601126101ab5761028a6108e9565b9060243590610297610919565b6001600160a01b038316928315610334578385528460205285852054918383106103005750508184957fddf252ad1be2c89b69c2b068fc378daa952ba7f163c4a11628f55a4df523b3ef936020938688528785520381872055816002540360025551908152a380f35b865163391434e360e21b81526001600160a01b03909216908201908152602081018390526040810184905281906060010390fd5b8551634b637e8f60e11b8152808301869052602490fd5b509190346101ab57816003193601126101ab57805190828454600181811c90808316928315610461575b602093848410811461044e5783885290811561043257506001146103dd575b505050829003601f01601f191682019267ffffffffffffffff8411838510176103ca57508291826103c69252826108a2565b0390f35b634e487b7160e01b815260418552602490fd5b8787529192508591837f8a35acfbc15ff81a39ae7d344fd709f28e8600b4aa8c65c6b64bfe7fe36bd19b5b83851061041e57505050508301015f8080610394565b805488860183015293019284908201610408565b60ff1916878501525050151560051b84010190505f8080610394565b634e487b7160e01b895260228a52602489fd5b91607f1691610375565b5050346101ab57816003193601126101ab5760055490516001600160a01b039091168152602090f35b83346101fe57806003193601126101fe576104ad610919565b600580546001600160a01b0319811690915581906001600160a01b03167f8be0079c531659141344cd1fd0a4f28419497f9722a3daafe3b4186f6b6457e08280a380f35b5050346101ab5760203660031901126101ab5760209181906001600160a01b036105196108e9565b16815280845220549051908152f35b50903461015e578060031936011261015e576105426108e9565b906024359161054f610919565b6001600160a01b03169283156105c257600254908382018092116105af575084927fddf252ad1be2c89b69c2b068fc378daa952ba7f163c4a11628f55a4df523b3ef9260209260025585855284835280852082815401905551908152a380f35b634e487b7160e01b865260119052602485fd5b84602492519163ec442f0560e01b8352820152fd5b5050346101ab57816003193601126101ab576020905160128152f35b5082346101fe5760603660031901126101fe5761060e6108e9565b610616610903565b916044359360018060a01b038316808352600160205286832033845260205286832054915f198310610651575b60208861022b898989610945565b8683106106b95781156106a257331561068b5750825260016020908152868320338452815291869020908590039055829061022b87610643565b8751634a1406b160e11b8152908101849052602490fd5b875163e602df0560e01b8152908101849052602490fd5b8751637dc7a0d960e11b8152339181019182526020820193909352604081018790528291506060010390fd5b5050346101ab57816003193601126101ab576020906002549051908152f35b503461015e578160031936011261015e5761071d6108e9565b602435903315610796576001600160a01b031691821561077f57508083602095338152600187528181208582528752205582519081527f8c5be1e5ebec7d5bd14f71427d1e84f3dd0314c0f7b2291e5b200ac8c7c3b925843392a35160018152f35b8351634a1406b160e11b8152908101859052602490fd5b835163e602df0560e01b8152808401869052602490fd5b849150833461015e578260031936011261015e5782600354600181811c90808316928315610898575b602093848410811461044e5783885290811561087c575060011461082657505050829003601f01601f191682019267ffffffffffffffff8411838510176103ca57508291826103c69252826108a2565b600387529192508591837fc2575a0e9e593c00f959f8c92f12db2869c3395a3b0502d05e2516446f71f85b5b8385106108685750505050830101858080610394565b805488860183015293019284908201610852565b60ff1916878501525050151560051b8401019050858080610394565b91607f16916107d6565b602080825282518183018190529093925f5b8281106108d557505060409293505f838284010152601f8019910116010190565b8181018601518482016040015285016108b4565b600435906001600160a01b03821682036108ff57565b5f80fd5b602435906001600160a01b03821682036108ff57565b6005546001600160a01b0316330361092d57565b60405163118cdaa760e01b8152336004820152602490fd5b916001600160a01b03808416928315610a0857169283156109f0575f90838252816020526040822054908382106109be575091604082827fddf252ad1be2c89b69c2b068fc378daa952ba7f163c4a11628f55a4df523b3ef958760209652828652038282205586815220818154019055604051908152a3565b60405163391434e360e21b81526001600160a01b03919091166004820152602481019190915260448101839052606490fd5b60405163ec442f0560e01b81525f6004820152602490fd5b604051634b637e8f60e11b81525f6004820152602490fdfea2646970667358221220d62e7061cb683ca582a4f0501c40835c42002a969713673644a06f4522645e9964736f6c63430008140033a2646970667358221220474710a2ebe078f32301b5d8a34b472096bbfab8adb372dfbf9f0e7572ad74a664736f6c63430008140033","linkReferences":{}},"methodIdentifiers":{"MAX_RESOLUTION_TIME()":"9598fd06","MIN_RESOLUTION_TIME()":"eb269fd9","createMarket(string,address,address,uint256)":"73d8c6bd","defaultOracle()":"80dce169","getAllMarkets()":"b0772d0b","getMarketByIndex(uint256)":"af4b9d3d","getMarkets(uint256,uint256)":"80968d48","getMarketsByState(uint8)":"9b7bcd24","getMarketsCount()":"27fa35c3","getResolvableMarkets()":"74623243","isValidMarket(address)":"58e6309f","marketIndex(address)":"5daab756","markets(uint256)":"b1283e77","owner()":"8da5cb5b","renounceOwnership()":"715018a6","transferOwnership(address)":"f2fde38b","updateDefaultOracle(address)":"3e797970"},"id":32}