{"abi":[{"type":"constructor","inputs":[{"name":"_name","type":"string","internalType":"string"},{"name":"_symbol","type":"string","internalType":"string"},{"name":"_isYesToken","type":"bool","internalType":"bool"},{"name":"_initialOwner","type":"address","internalType":"address"}],"stateMutability":"nonpayable"},{"type":"function","name":"allowance","inputs":[{"name":"owner","type":"address","internalType":"address"},{"name":"spender","type":"address","internalType":"address"}],"outputs":[{"name":"","type":"uint256","internalType":"uint256"}],"stateMutability":"view"},{"type":"function","name":"approve","inputs":[{"name":"spender","type":"address","internalType":"address"},{"name":"value","type":"uint256","internalType":"uint256"}],"outputs":[{"name":"","type":"bool","internalType":"bool"}],"stateMutability":"nonpayable"},{"type":"function","name":"balanceOf","inputs":[{"name":"account","type":"address","internalType":"address"}],"outputs":[{"name":"","type":"uint256","internalType":"uint256"}],"stateMutability":"view"},{"type":"function","name":"burn","inputs":[{"name":"_from","type":"address","internalType":"address"},{"name":"_amount","type":"uint256","internalType":"uint256"}],"outputs":[],"stateMutability":"nonpayable"},{"type":"function","name":"decimals","inputs":[],"outputs":[{"name":"","type":"uint8","internalType":"uint8"}],"stateMutability":"view"},{"type":"function","name":"getTokenInfo","inputs":[],"outputs":[{"name":"isYes","type":"bool","internalType":"bool"},{"name":"marketAddress","type":"address","internalType":"address"}],"stateMutability":"view"},{"type":"function","name":"isYesToken","inputs":[],"outputs":[{"name":"","type":"bool","internalType":"bool"}],"stateMutability":"view"},{"type":"function","name":"mint","inputs":[{"name":"_to","type":"address","internalType":"address"},{"name":"_amount","type":"uint256","internalType":"uint256"}],"outputs":[],"stateMutability":"nonpayable"},{"type":"function","name":"name","inputs":[],"outputs":[{"name":"","type":"string","internalType":"string"}],"stateMutability":"view"},{"type":"function","name":"owner","inputs":[],"outputs":[{"name":"","type":"address","internalType":"address"}],"stateMutability":"view"},{"type":"function","name":"renounceOwnership","inputs":[],"outputs":[],"stateMutability":"nonpayable"},{"type":"function","name":"symbol","inputs":[],"outputs":[{"name":"","type":"string","internalType":"string"}],"stateMutability":"view"},{"type":"function","name":"totalSupply","inputs":[],"outputs":[{"name":"","type":"uint256","internalType":"uint256"}],"stateMutability":"view"},{"type":"function","name":"transfer","inputs":[{"name":"to","type":"address","internalType":"address"},{"name":"value","type":"uint256","internalType":"uint256"}],"outputs":[{"name":"","type":"bool","internalType":"bool"}],"stateMutability":"nonpayable"},{"type":"function","name":"transferFrom","inputs":[{"name":"from","type":"address","internalType":"address"},{"name":"to","type":"address","internalType":"address"},{"name":"value","type":"uint256","internalType":"uint256"}],"outputs":[{"name":"","type":"bool","internalType":"bool"}],"stateMutability":"nonpayable"},{"type":"function","name":"transferOwnership","inputs":[{"name":"newOwner","type":"address","internalType":"address"}],"outputs":[],"stateMutability":"nonpayable"},{"type":"event","name":"Approval","inputs":[{"name":"owner","type":"address","indexed":true,"internalType":"address"},{"name":"spender","type":"address","indexed":true,"internalType":"address"},{"name":"value","type":"uint256","indexed":false,"internalType":"uint256"}],"anonymous":false},{"type":"event","name":"OwnershipTransferred","inputs":[{"name":"previousOwner","type":"address","indexed":true,"internalType":"address"},{"name":"newOwner","type":"address","indexed":true,"internalType":"address"}],"anonymous":false},{"type":"event","name":"Transfer","inputs":[{"name":"from","type":"address","indexed":true,"internalType":"address"},{"name":"to","type":"address","indexed":true,"internalType":"address"},{"name":"value","type":"uint256","indexed":false,"internalType":"uint256"}],"anonymous":false},{"type":"error","name":"ERC20InsufficientAllowance","inputs":[{"name":"spender","type":"address","internalType":"address"},{"name":"allowance","type":"uint256","internalType":"uint256"},{"name":"needed","type":"uint256","internalType":"uint256"}]},{"type":"error","name":"ERC20InsufficientBalance","inputs":[{"name":"sender","type":"address","internalType":"address"},{"name":"balance","type":"uint256","internalType":"uint256"},{"name":"needed","type":"uint256","internalType":"uint256"}]},{"type":"error","name":"ERC20InvalidApprover","inputs":[{"name":"approver","type":"address","internalType":"address"}]},{"type":"error","name":"ERC20InvalidReceiver","inputs":[{"name":"receiver","type":"address","internalType":"address"}]},{"type":"error","name":"ERC20InvalidSender","inputs":[{"name":"sender","type":"address","internalType":"address"}]},{"type":"error","name":"ERC20InvalidSpender","inputs":[{"name":"spender","type":"address","internalType":"address"}]},{"type":"error","name":"OwnableInvalidOwner","inputs":[{"name":"owner","type":"address","internalType":"address"}]},{"type":"error","name":"OwnableUnauthorizedAccount","inputs":[{"name":"account","type":"address","internalType":"address"}]}],"bytecode":{"object":"0x60a0604052346200039e5762000e8f803803806200001d81620003a2565b9283398101906080818303126200039e5780516001600160401b03908181116200039e57836200004f918401620003c8565b9260209081840151908382116200039e576200006d918501620003c8565b9360408401519384151585036200039e57606001516001600160a01b039586821694918590036200039e578251828111620002a9576003918254916001958684811c9416801562000393575b888510146200037f578190601f948581116200032c575b508890858311600114620002c9575f92620002bd575b50505f1982861b1c191690861b1783555b8051938411620002a95760049586548681811c911680156200029e575b828210146200028b5783811162000243575b5080928511600114620001d957509383949184925f95620001cd575b50501b925f19911b1c19161781555b8115620001b65750600580546001600160a01b03198116831790915560405193167f8be0079c531659141344cd1fd0a4f28419497f9722a3daafe3b4186f6b6457e05f80a3608052610a5690816200043982396080518181816101c9015261024a0152f35b6024905f60405191631e4fbdf760e01b8352820152fd5b015193505f8062000142565b92919084601f198116885f52855f20955f905b898383106200022857505050106200020e575b50505050811b01815562000151565b01519060f8845f19921b161c191690555f808080620001ff565b858701518955909701969485019488935090810190620001ec565b875f52815f208480880160051c82019284891062000281575b0160051c019087905b8281106200027557505062000126565b5f815501879062000265565b925081926200025c565b602288634e487b7160e01b5f525260245ffd5b90607f169062000114565b634e487b7160e01b5f52604160045260245ffd5b015190505f80620000e6565b90889350601f19831691875f528a5f20925f5b8c828210620003155750508411620002fd575b505050811b018355620000f7565b01515f1983881b60f8161c191690555f8080620002ef565b8385015186558c97909501949384019301620002dc565b909150855f52885f208580850160051c8201928b861062000375575b918a91869594930160051c01915b82811062000366575050620000d0565b5f81558594508a910162000356565b9250819262000348565b634e487b7160e01b5f52602260045260245ffd5b93607f1693620000b9565b5f80fd5b6040519190601f01601f191682016001600160401b03811183821017620002a957604052565b919080601f840112156200039e5782516001600160401b038111620002a957602090620003fe601f8201601f19168301620003a2565b928184528282870101116200039e575f5b818110620004245750825f9394955001015290565b85810183015184820184015282016200040f56fe60806040818152600480361015610014575f80fd5b5f92833560e01c90816306fdde03146107ad57508063095ea7b31461070457806318160ddd146106e557806323b872dd146105f3578063313ce567146105d757806340c10f191461052857806370a08231146104f1578063715018a6146104945780638da5cb5b1461046b57806395d89b411461034b5780639dc29fac1461026f578063a77df1c914610232578063a9059cbb14610201578063abb1dc44146101af578063dd62ed3e146101625763f2fde38b146100d0575f80fd5b3461015e57602036600319011261015e576100e96108e9565b906100f2610919565b6001600160a01b03918216928315610148575050600554826bffffffffffffffffffffffff60a01b821617600555167f8be0079c531659141344cd1fd0a4f28419497f9722a3daafe3b4186f6b6457e08380a380f35b51631e4fbdf760e01b8152908101849052602490fd5b8280fd5b5050346101ab57806003193601126101ab57806020926101806108e9565b610188610903565b6001600160a01b0391821683526001865283832091168252845220549051908152f35b5080fd5b8284346101fe57806003193601126101fe575060055481517f0000000000000000000000000000000000000000000000000000000000000000151581526001600160a01b039091166020820152f35b80fd5b5050346101ab57806003193601126101ab5760209061022b6102216108e9565b6024359033610945565b5160018152f35b5050346101ab57816003193601126101ab57602090517f000000000000000000000000000000000000000000000000000000000000000015158152f35b508290346101ab57826003193601126101ab5761028a6108e9565b9060243590610297610919565b6001600160a01b038316928315610334578385528460205285852054918383106103005750508184957fddf252ad1be2c89b69c2b068fc378daa952ba7f163c4a11628f55a4df523b3ef936020938688528785520381872055816002540360025551908152a380f35b865163391434e360e21b81526001600160a01b03909216908201908152602081018390526040810184905281906060010390fd5b8551634b637e8f60e11b8152808301869052602490fd5b509190346101ab57816003193601126101ab57805190828454600181811c90808316928315610461575b602093848410811461044e5783885290811561043257506001146103dd575b505050829003601f01601f191682019267ffffffffffffffff8411838510176103ca57508291826103c69252826108a2565b0390f35b634e487b7160e01b815260418552602490fd5b8787529192508591837f8a35acfbc15ff81a39ae7d344fd709f28e8600b4aa8c65c6b64bfe7fe36bd19b5b83851061041e57505050508301015f8080610394565b805488860183015293019284908201610408565b60ff1916878501525050151560051b84010190505f8080610394565b634e487b7160e01b895260228a52602489fd5b91607f1691610375565b5050346101ab57816003193601126101ab5760055490516001600160a01b039091168152602090f35b83346101fe57806003193601126101fe576104ad610919565b600580546001600160a01b0319811690915581906001600160a01b03167f8be0079c531659141344cd1fd0a4f28419497f9722a3daafe3b4186f6b6457e08280a380f35b5050346101ab5760203660031901126101ab5760209181906001600160a01b036105196108e9565b16815280845220549051908152f35b50903461015e578060031936011261015e576105426108e9565b906024359161054f610919565b6001600160a01b03169283156105c257600254908382018092116105af575084927fddf252ad1be2c89b69c2b068fc378daa952ba7f163c4a11628f55a4df523b3ef9260209260025585855284835280852082815401905551908152a380f35b634e487b7160e01b865260119052602485fd5b84602492519163ec442f0560e01b8352820152fd5b5050346101ab57816003193601126101ab576020905160128152f35b5082346101fe5760603660031901126101fe5761060e6108e9565b610616610903565b916044359360018060a01b038316808352600160205286832033845260205286832054915f198310610651575b60208861022b898989610945565b8683106106b95781156106a257331561068b5750825260016020908152868320338452815291869020908590039055829061022b87610643565b8751634a1406b160e11b8152908101849052602490fd5b875163e602df0560e01b8152908101849052602490fd5b8751637dc7a0d960e11b8152339181019182526020820193909352604081018790528291506060010390fd5b5050346101ab57816003193601126101ab576020906002549051908152f35b503461015e578160031936011261015e5761071d6108e9565b602435903315610796576001600160a01b031691821561077f57508083602095338152600187528181208582528752205582519081527f8c5be1e5ebec7d5bd14f71427d1e84f3dd0314c0f7b2291e5b200ac8c7c3b925843392a35160018152f35b8351634a1406b160e11b8152908101859052602490fd5b835163e602df0560e01b8152808401869052602490fd5b849150833461015e578260031936011261015e5782600354600181811c90808316928315610898575b602093848410811461044e5783885290811561087c575060011461082657505050829003601f01601f191682019267ffffffffffffffff8411838510176103ca57508291826103c69252826108a2565b600387529192508591837fc2575a0e9e593c00f959f8c92f12db2869c3395a3b0502d05e2516446f71f85b5b8385106108685750505050830101858080610394565b805488860183015293019284908201610852565b60ff1916878501525050151560051b8401019050858080610394565b91607f16916107d6565b602080825282518183018190529093925f5b8281106108d557505060409293505f838284010152601f8019910116010190565b8181018601518482016040015285016108b4565b600435906001600160a01b03821682036108ff57565b5f80fd5b602435906001600160a01b03821682036108ff57565b6005546001600160a01b0316330361092d57565b60405163118cdaa760e01b8152336004820152602490fd5b916001600160a01b03808416928315610a0857169283156109f0575f90838252816020526040822054908382106109be575091604082827fddf252ad1be2c89b69c2b068fc378daa952ba7f163c4a11628f55a4df523b3ef958760209652828652038282205586815220818154019055604051908152a3565b60405163391434e360e21b81526001600160a01b03919091166004820152602481019190915260448101839052606490fd5b60405163ec442f0560e01b81525f6004820152602490fd5b604051634b637e8f60e11b81525f6004820152602490fdfea2646970667358221220d62e7061cb683ca582a4f0501c40835c42002a969713673644a06f4522645e9964736f6c63430008140033","linkReferences":{}},"methodIdentifiers":{"allowance(address,address)":"dd62ed3e","approve(address,uint256)":"095ea7b3","balanceOf(address)":"70a08231","burn(address,uint256)":"9dc29fac","decimals()":"313ce567","getTokenInfo()":"abb1dc44","isYesToken()":"a77df1c9","mint(address,uint256)":"40c10f19","name()":"06fdde03","owner()":"8da5cb5b","renounceOwnership()":"715018a6","symbol()":"95d89b41","totalSupply()":"18160ddd","transfer(address,uint256)":"a9059cbb","transferFrom(address,address,uint256)":"23b872dd","transferOwnership(address)":"f2fde38b"},"id":33}