{"abi":[{"type":"constructor","inputs":[{"name":"_usdcToken","type":"address","internalType":"address"}],"stateMutability":"nonpayable"},{"type":"function","name":"PAYOUT_AMOUNT","inputs":[],"outputs":[{"name":"","type":"uint256","internalType":"uint256"}],"stateMutability":"view"},{"type":"function","name":"PREMIUM_AMOUNT","inputs":[],"outputs":[{"name":"","type":"uint256","internalType":"uint256"}],"stateMutability":"view"},{"type":"function","name":"USDC_TOKEN","inputs":[],"outputs":[{"name":"","type":"address","internalType":"contract IERC20"}],"stateMutability":"view"},{"type":"function","name":"checkAndSettlePolicy","inputs":[{"name":"_policyId","type":"uint256","internalType":"uint256"},{"name":"_currentFuelPrice","type":"uint256","internalType":"uint256"}],"outputs":[],"stateMutability":"nonpayable"},{"type":"function","name":"getContractBalance","inputs":[],"outputs":[{"name":"","type":"uint256","internalType":"uint256"}],"stateMutability":"view"},{"type":"function","name":"getPolicy","inputs":[{"name":"_policyId","type":"uint256","internalType":"uint256"}],"outputs":[{"name":"","type":"tuple","internalType":"struct Cedibets.Policy","components":[{"name":"id","type":"uint256","internalType":"uint256"},{"name":"policyHolder","type":"address","internalType":"address"},{"name":"premiumPaid","type":"uint256","internalType":"uint256"},{"name":"payoutAmount","type":"uint256","internalType":"uint256"},{"name":"strikePrice","type":"uint256","internalType":"uint256"},{"name":"expirationTimestamp","type":"uint256","internalType":"uint256"},{"name":"settled","type":"bool","internalType":"bool"}]}],"stateMutability":"view"},{"type":"function","name":"getUserPolicies","inputs":[{"name":"_user","type":"address","internalType":"address"}],"outputs":[{"name":"","type":"uint256[]","internalType":"uint256[]"}],"stateMutability":"view"},{"type":"function","name":"owner","inputs":[],"outputs":[{"name":"","type":"address","internalType":"address"}],"stateMutability":"view"},{"type":"function","name":"policies","inputs":[{"name":"","type":"uint256","internalType":"uint256"}],"outputs":[{"name":"id","type":"uint256","internalType":"uint256"},{"name":"policyHolder","type":"address","internalType":"address"},{"name":"premiumPaid","type":"uint256","internalType":"uint256"},{"name":"payoutAmount","type":"uint256","internalType":"uint256"},{"name":"strikePrice","type":"uint256","internalType":"uint256"},{"name":"expirationTimestamp","type":"uint256","internalType":"uint256"},{"name":"settled","type":"bool","internalType":"bool"}],"stateMutability":"view"},{"type":"function","name":"policyCounter","inputs":[],"outputs":[{"name":"","type":"uint256","internalType":"uint256"}],"stateMutability":"view"},{"type":"function","name":"purchasePolicy","inputs":[{"name":"_strikePrice","type":"uint256","internalType":"uint256"},{"name":"_expirationTimestamp","type":"uint256","internalType":"uint256"}],"outputs":[],"stateMutability":"nonpayable"},{"type":"function","name":"renounceOwnership","inputs":[],"outputs":[],"stateMutability":"nonpayable"},{"type":"function","name":"transferOwnership","inputs":[{"name":"newOwner","type":"address","internalType":"address"}],"outputs":[],"stateMutability":"nonpayable"},{"type":"function","name":"userPolicies","inputs":[{"name":"","type":"address","internalType":"address"},{"name":"","type":"uint256","internalType":"uint256"}],"outputs":[{"name":"","type":"uint256","internalType":"uint256"}],"stateMutability":"view"},{"type":"function","name":"withdrawFunds","inputs":[{"name":"_amount","type":"uint256","internalType":"uint256"}],"outputs":[],"stateMutability":"nonpayable"},{"type":"event","name":"FundsWithdrawn","inputs":[{"name":"owner","type":"address","indexed":true,"internalType":"address"},{"name":"amount","type":"uint256","indexed":false,"internalType":"uint256"}],"anonymous":false},{"type":"event","name":"OwnershipTransferred","inputs":[{"name":"previousOwner","type":"address","indexed":true,"internalType":"address"},{"name":"newOwner","type":"address","indexed":true,"internalType":"address"}],"anonymous":false},{"type":"event","name":"PolicyPurchased","inputs":[{"name":"policyId","type":"uint256","indexed":true,"internalType":"uint256"},{"name":"policyHolder","type":"address","indexed":true,"internalType":"address"},{"name":"strikePrice","type":"uint256","indexed":false,"internalType":"uint256"},{"name":"expirationTimestamp","type":"uint256","indexed":false,"internalType":"uint256"}],"anonymous":false},{"type":"event","name":"PolicySettled","inputs":[{"name":"policyId","type":"uint256","indexed":true,"internalType":"uint256"},{"name":"payoutAmount","type":"uint256","indexed":false,"internalType":"uint256"},{"name":"closingPrice","type":"uint256","indexed":false,"internalType":"uint256"}],"anonymous":false},{"type":"error","name":"InsufficientContractBalance","inputs":[]},{"type":"error","name":"InvalidExpirationTime","inputs":[]},{"type":"error","name":"InvalidStrikePrice","inputs":[]},{"type":"error","name":"OwnableInvalidOwner","inputs":[{"name":"owner","type":"address","internalType":"address"}]},{"type":"error","name":"OwnableUnauthorizedAccount","inputs":[{"name":"account","type":"address","internalType":"address"}]},{"type":"error","name":"PolicyAlreadySettled","inputs":[]},{"type":"error","name":"PolicyNotExpired","inputs":[]},{"type":"error","name":"PolicyNotFound","inputs":[]},{"type":"error","name":"ReentrancyGuardReentrantCall","inputs":[]},{"type":"error","name":"TransferFailed","inputs":[]}],"bytecode":{"object":"0x60a03461013357601f610e4638819003918201601f19168301916001600160401b038311848410176101375780849260209460405283398101031261013357516001600160a01b038082169182900361013357331561011b575f543360018060a01b03198216175f55604051913391167f8be0079c531659141344cd1fd0a4f28419497f9722a3daafe3b4186f6b6457e05f80a36001805581156100d957506080526001600455604051610cfa908161014c823960805181818160da0152818161029801528181610521015281816107eb01526109c10152f35b62461bcd60e51b815260206004820152601a60248201527f496e76616c6964205553444320746f6b656e20616464726573730000000000006044820152606490fd5b604051631e4fbdf760e01b81525f6004820152602490fd5b5f80fd5b634e487b7160e01b5f52604160045260245ffdfe6080604081815260049182361015610015575f80fd5b5f92833560e01c9182630386a7e014610b95575081630b6485ae14610961578163155dd5ee146107ae57816319ac4614146107015781632446d52c146106e35781632b07fce3146105fa5781633d36adc5146105a45781636f9fb98a146104f2578163715018a6146104955781638da5cb5b1461046d578163c28cfc411461022a578163d3e89483146101b6578163d52c1bea14610198578163f2fde38b1461010d575063fa569274146100c7575f80fd5b34610109578160031936011261010957517f00000000000000000000000000000000000000000000000000000000000000006001600160a01b03168152602090f35b5080fd5b90503461019457602036600319011261019457610128610bcd565b90610131610c0c565b6001600160a01b0391821692831561017e57505082546001600160a01b0319811683178455167f8be0079c531659141344cd1fd0a4f28419497f9722a3daafe3b4186f6b6457e08380a380f35b51631e4fbdf760e01b8152908101849052602490fd5b8280fd5b90503461019457826003193601126101945760209250549051908152f35b905034610194576020366003190112610194578160e0938235815260026020522080549260018060a01b036001830154169260028301546003840154918401549260ff600660058701549601541695815197885260208801528601526060850152608084015260a0830152151560c0820152f35b8383346101095761023a36610bb3565b610245929192610ca1565b8284526020906002825282852060018060a01b03908160018201541691821561045d57600582015442111561044d5760068201805460ff811661043d5760ff1916600117905581890154841115610406577f0000000000000000000000000000000000000000000000000000000000000000168551916370a0823160e01b8352308a8401528583602481855afa9283156103fc5789936103c8575b506003019283548093106103b857865163a9059cbb60e01b81526001600160a01b03909116818b019081526020810193909352918591839182908b90829060400103925af19081156103ae578791610381575b5015610371577fd6f8df88570e5663834e7fb648d0675d2e98762816cbd95bf851189095347c0f9495965054918351928352820152a25b6001805580f35b83516312171d8360e31b81528790fd5b6103a19150843d86116103a7575b6103998183610c67565b810190610c89565b88610333565b503d61038f565b85513d89823e3d90fd5b865163786e0a9960e01b81528a90fd5b9092508581813d83116103f5575b6103e08183610c67565b810103126103f157519160036102e0565b8880fd5b503d6103d6565b87513d8b823e3d90fd5b5050507fd6f8df88570e5663834e7fb648d0675d2e98762816cbd95bf851189095347c0f93949550825191868352820152a261036a565b87516389b6e17960e01b81528b90fd5b855163ddeea75b60e01b81528990fd5b855163720caa4f60e01b81528990fd5b505034610109578160031936011261010957905490516001600160a01b039091168152602090f35b83346104ef57806003193601126104ef576104ae610c0c565b80546001600160a01b03198116825581906001600160a01b03167f8be0079c531659141344cd1fd0a4f28419497f9722a3daafe3b4186f6b6457e08280a380f35b80fd5b9190503461019457826003193601126101945780516370a0823160e01b815230928101929092526020826024817f00000000000000000000000000000000000000000000000000000000000000006001600160a01b03165afa91821561059a578392610563575b6020838351908152f35b9091506020813d8211610592575b8161057e60209383610c67565b81010312610194576020925051905f610559565b3d9150610571565b81513d85823e3d90fd5b5050346101095780600319360112610109576105be610bcd565b6001600160a01b031682526003602052808220805460243593908410156104ef57506020926105ec91610be3565b90549060031b1c9051908152f35b9190503461019457602036600319011261019457808360e09460c0835161062081610c37565b82815282602082015282858201528260608201528260808201528260a082015201528335815260026020522081519161065883610c37565b81549384845260018060a01b039182600185015416926020860193845260028501549082870191825260038601549360608801948552860154946080880195865260c060ff600660058a01549960a08c019a8b520154169801971515885283519889525116602088015251908601525160608501525160808401525160a083015251151560c0820152f35b50503461010957816003193601126101095760209051624c4b408152f35b8284346104ef57602090816003193601126104ef5782906001600160a01b03610728610bcd565b16815260038352818120908251808584549182815201908194845286842090845b81811061079a575050508161075f910382610c67565b83519485948186019282875251809352850193925b82811061078357505050500390f35b835185528695509381019392810192600101610774565b825484529288019260019283019201610749565b905034610194576020908160031936011261095d578035906107ce610c0c565b83516370a0823160e01b815230818301526001600160a01b0391907f00000000000000000000000000000000000000000000000000000000000000008316908581602481855afa908115610953578891610922575b5084116108df578654865163a9059cbb60e01b81529084166001600160a01b0316838201908152602081018690529091869183919082908b90829060400103925af19081156108d55787916108b8575b50156108aa5750907feaff4b37086828766ad3268786972c0cd24259d4c87a80f9d3963a3c3d999b0d92918554169351908152a280f35b84516312171d8360e31b8152fd5b6108cf9150853d87116103a7576103998183610c67565b5f610873565b86513d89823e3d90fd5b855162461bcd60e51b8152808301869052601d60248201527f496e73756666696369656e7420636f6e74726163742062616c616e63650000006044820152606490fd5b90508581813d831161094c575b6109398183610c67565b8101031261094857515f610823565b8780fd5b503d61092f565b87513d8a823e3d90fd5b8380fd5b8383346101095761097136610bb3565b909161097b610ca1565b8215610b865742821115610b775780516323b872dd60e01b81523386820152306024820152624c4b406044820181905292906020906001600160a01b039082816064818b7f000000000000000000000000000000000000000000000000000000000000000087165af1908115610b6d578891610b50575b5015610b40578754945f1991828714610b2d57869189896006938d600187019055895193610a1f85610c37565b8685528885013381528b860191825260608601926302faf0808452608087019485528c60a08801968d885260c089019a818c52815260028d522096518755600187019151166bffffffffffffffffffffffff60a01b825416179055516002850155516003840155518c830155516005820155019051151560ff801983541691161790553387526003825283872080549068010000000000000000821015610b1a5781610af59160017f86175db98187e6ddfe37c7302752dae1b1287aa583f43b5b6c7038d991c8dc579897969594018155610be3565b819291549060031b9188831b921b191617905582519586528501523393a36001805580f35b634e487b7160e01b895260418a52602489fd5b634e487b7160e01b895260118a52602489fd5b83516312171d8360e31b81528890fd5b610b679150833d85116103a7576103998183610c67565b896109f2565b85513d8a823e3d90fd5b516308e8b93760e01b81528490fd5b51631d91bc4d60e21b81528490fd5b849034610109578160031936011261010957806302faf08060209252f35b6040906003190112610bc9576004359060243590565b5f80fd5b600435906001600160a01b0382168203610bc957565b8054821015610bf8575f5260205f2001905f90565b634e487b7160e01b5f52603260045260245ffd5b5f546001600160a01b03163303610c1f57565b60405163118cdaa760e01b8152336004820152602490fd5b60e0810190811067ffffffffffffffff821117610c5357604052565b634e487b7160e01b5f52604160045260245ffd5b90601f8019910116810190811067ffffffffffffffff821117610c5357604052565b90816020910312610bc957518015158103610bc95790565b600260015414610cb2576002600155565b604051633ee5aeb560e01b8152600490fdfea264697066735822122078c1f26aa269b087aeeae80a131e74b5f5d505d65061e2dfc5408231b5d6de1b64736f6c63430008140033","linkReferences":{}},"methodIdentifiers":{"PAYOUT_AMOUNT()":"0386a7e0","PREMIUM_AMOUNT()":"2446d52c","USDC_TOKEN()":"fa569274","checkAndSettlePolicy(uint256,uint256)":"c28cfc41","getContractBalance()":"6f9fb98a","getPolicy(uint256)":"2b07fce3","getUserPolicies(address)":"19ac4614","owner()":"8da5cb5b","policies(uint256)":"d3e89483","policyCounter()":"d52c1bea","purchasePolicy(uint256,uint256)":"0b6485ae","renounceOwnership()":"715018a6","transferOwnership(address)":"f2fde38b","userPolicies(address,uint256)":"3d36adc5","withdrawFunds(uint256)":"155dd5ee"},"id":28}